:1000000003C003C003C003C003C003C003C003C0D8
:100080009AC4BCC4BBC4BAC4B9C4B8C4B7C4B6C4A7
:10009000B5C4B4C4B3C4B2C4B1C4B0C4AFC42CC337
:1000A0004EC34DC34CC34BC34AC349C348C347C3E4
:1000B00046C345C344C343C342C341C317C0197AAF
:1000C0004005930B0902120001010080320904006F
:1000D00000000000000012011001FF000008D0160F
:1000E00053070302000000010403090411241FBE8A
:1000F000CFE5D2E0CDBFDEBF20E0A0E6B0E001C09A
:100100001D92AC38B207E1F7BFC1A82FB92F80E02C
:1001100090E041E050EA609530E009C02D918227DF
:100120009795879510F084279527305EC8F36F5F09
:10013000A8F30895EADF8D939D930895CF93CFB7E9
:10014000CF93C395B39BE9F7B39B0BC0B39B09C097
:10015000B39B07C0B39B05C0B39B03C0B39B01C057
:10016000D9C00F92DF93C0916E00DD27CA58DF4FD0
:10017000012EB39B03C0DF910F90E6CF2F930F9317
:100180001F934F932FEF4F6F06B303FB20F95F933D
:100190003F9350E03BE065C016B30126502953FD64
:1001A000C89556B3012703FB25F92F7306B3B1F0A9
:1001B0005027102713FB26F906B22230F0F000C0BA
:1001C00016B3012703FB27F90126502906B2243074
:1001D000E8F54F77206816B30000F6CF50274F7D23
:1001E000206206B2102F000000C006B3002650297E
:1001F000102713FB26F906B2E2CF4F7B06B320642B
:1002000000C0DACF01265029187106B269F14E7F7D
:100210002160012F16B328C0002650294D7F06B259
:100220002260102F29C0012650294B7F06B224607E
:10023000012F2DC016B301265029477F28600000EA
:1002400006B22EC04F7E06B3206130C0422706B3EF
:10025000499300265029102706B24FEF13FB20F9CF
:10026000297F16B379F2187159F10126502906B287
:10027000012703FB21F9237F06B371F200265029E1
:100280003150D0F006B2102713FB22F9277E16B3A7
:1002900051F201265029012703FB06B223F92F7CD6
:1002A00049F2000006B3102713FB24F90026502959
:1002B00006B22F7939F270CF10E21ABF00271DC0A5
:1002C0003B503195C31BD04010E21ABF0881033C5C
:1002D00029F10B3419F120916C001981110F1213BF
:1002E000EDCF093651F10D3211F0013E39F7CAE078
:1002F0001AB715FD02C0CA95D9F7009374003F9153
:100300005F914F911F910F912F91DF910F90CAB77D
:10031000C5FD17CFCF91CFBFCF9108952091740025
:10032000222369F3109172001123F1F43430F2F0BA
:100330003093720020936D0019C00091720001305B
:100340009CF40AE530916F0034FD11C000936F00FA
:10035000C1E6D0E010C0052710E000C021C005278D
:1003600010E0C89508BB14C03AE501C032ED032E79
:10037000C0E0D0E032E017B31861C39A08B317BBEE
:1003800058E120E84FEF20FF052708BB2795179578
:100390001C3F28F700004552B0F720FF052727959E
:1003A00008BB17951C3FB8F629913A9561F7077E6F
:1003B00010917300110F08BBC250D04011F0109380
:1003C0006C0010E21ABF086017B3177E402F477EFB
:1003D00054E05A95F1F708BB17BB48BB90CF2FEFFD
:1003E000B0E8A0E04AE0B1BF000081EE9CE0B39924
:1003F000FECFB39BFECF0197B399FDCF97FF03C00C
:10040000BA1B819501C0BA0FA69539F4A0E428F46F
:10041000281710F031B7282FA1E0415021F731BF44
:1004200000000895F201309741F02AE7421629E1D1
:10043000520629F481B790E002C08FEB9CEC21E0DA
:100440000C0120935700E8951124CF0102962C014E
:10045000089514BE88E181BD87E081BDBB9A2FE27B
:100460008BE19FE0215080409040E1F700C0000008
:10047000BB988AE580936F008FEF80936000AC9A01
:100480008BB780628BBF0895EAE7F9E1E491EF3F13
:1004900011F0E1BF0000DDDF712C312C412C512C1B
:1004A000CCE7D5E114E686B3887109F014E6115063
:1004B00029F41092730010926C0091DF0AB605FEC9
:1004C00005C03CDE80E28ABF712C04C0219759F739
:1004D000C0E0D0E0A89522E032120CC0E0E8F9E1DB
:1004E000E054F10983E080935700E8953097C1F715
:1004F000412C512C832D803459F4F2013297E0388D
:1005000089E1F80750F485E080935700E89505C02D
:10051000843019F4CD2B11F4EAC0312C8091720093
:10052000835087FD99C090916D009D3209F092C073
:10053000883009F08FC083EC809361008AE5809356
:100540006F0080917700807690917800882379F110
:10055000911108C082E899E1909371008093700036
:1005600086E06DC0913069F441145104F1F080913E
:100570007B00807C482E50907C0081E187BFE8950D
:1005800014C0933081F48091790090917A004ADF11
:1005900080917B0090917C0045DF842D8F7329F43E
:1005A00090E4392E4CC09F73392E80E048C0809172
:1005B000790010926A00911106C010926B002AE631
:1005C00030E082E038C0953019F48093730025C084
:1005D0009630E9F490917A00913019F48AE999E122
:1005E00004C0923041F488E899E1909371008093BF
:1005F000700082E124C09330C1F68111D6CF8CEA1D
:1006000099E1909371008093700084E018C0983055
:1006100079F0993031F4809375002AE630E080E07B
:100620000AC081E09A3009F080E02AE630E003C099
:1006300025E730E081E030937100209370009091C5
:100640007E00911105C090917D00981708F4892FC4
:10065000809360001092720080916F0084FF31C01F
:10066000809160008F3F69F1C82F893008F0C8E0A1
:100670008C1B809360009091610088E889278093AB
:100680006100CC2391F080917000A2E6B0E0E82FE9
:10069000F091710094919D9331969C2F980F9E1329
:1006A000F9CFF0937100E09370006C2F82E690E038
:1006B00041DDCC5FCC3019F08FEF80936000C093A8
:1006C0006F00C30101963C01803B944029F4EDE7A3
:1006D000F9E1E491EF3F59F40AB605FEE1CE8DE170
:1006E000B39B8DE18150E1F780E28ABFD9CEB1DEC4
:1006F0001BBE15BAE1CCFFCF0000000000000000D7
:1007000000000000000000000000000000000000E9
:10071000000000000000000011241FBECFE5D2E061
:10072000DEBFCDBF10E0A0E6B0E0E6E9F9E002C030
:1007300005900D92A236B107D9F724D139C1AFCCBB
:10074000009731F0EDE1F0E13197F1F70197F8CF43
:100750000895807C20E030E0F901E80FF91F459111
:100760005491F901EE7FE60FF71F518340832E5F0E
:100770003F4F2034310581F70895FC01E07C93E080
:1007800090935700E89507B600FCFDCF08950F93AE
:100790001F93CF93AB01405C5F4FDB019C01261B95
:1007A000370BF901EA0FFB1F0D911D91C1E0080104
:1007B000C0935700E8951124A417B50779F725E0F1
:1007C000FC0120935700E89507B600FCFDCFCF91C0
:1007D0001F910F910895CF93DF93CDB7DEB7C0542B
:1007E000D1090FB6F894DEBF0FBECDBFBE016F5F5B
:1007F0007F4F80E090E0ADDF8FEF9FEF9A8389839A
:1008000080E090E0BADFBE016F5F7F4F80E090E054
:10081000BEDFC05CDF4F0FB6F894DEBF0FBECDBFAA
:10082000DF91CF9108950F931F93CF93DF93CDB7AF
:10083000DEB7C054D1090FB6F894DEBF0FBECDBFEE
:1008400000E010E0003486E0180709F440C020E022
:1008500030E0F901E00FF11FE256FF4FC901959515
:10086000879546E0EA3DF40768F0880F991FE1E0BC
:10087000F0E0EC0FFD1FE80FF91F8FEF9FEF918362
:1008800080830CC045915491880F991FE1E0F0E0FE
:10089000EC0FFD1FE80FF91F518340832E5F3F4F80
:1008A00020343105B1F68091600090916100800F95
:1008B000911F63DF8091600090916100BE016F5FC6
:1008C0007F4F800F911F63DF005C1F4FBBCFC05C69
:1008D000DF4F0FB6F894DEBF0FBECDBFDF91CF91D3
:1008E0001F910F910895CF93DF93CDB7DEB7C25418
:1008F000D1090FB6F894DEBF0FBECDBF8091600066
:10090000909161009695879581509044FE013196B3
:100910009E012F5B3F4FBF0181939193E217F30735
:10092000D9F780E090E022966FAF229723967FAFB1
:10093000239723DF22966FAD229723967FAD2397CF
:1009400080E090E024DFCE5BDF4F0FB6F894DEBF8F
:100950000FBECDBFDF91CF910895CF9387B3836052
:1009600087BBC198CAEF81E090E0EADEC19A81E0DE
:1009700090E0E6DEC198C150B1F7CF910895E0E074
:10098000F0E0099488B318BA87B38FEF87BB8AEF7A
:1009900090E0D6DE87B317BA8AEF90E0D1DEF89404
:1009A0001ADF41DFA0DFD9DFEADF80E090E00895C1
:1009B000F894FFCF80190000000000000000000044
:1009C0000000000000000000000000000000000027
:1009D00000000000000011241FBECFE5D2E0DEBF02
:1009E000CDBF10E0A0E6B0E0E2E5FCE002C005907B
:1009F0000D92A236B107D9F714D129C141CB9C0180
:100A00008DE190E10197F1F721503109C9F708957F
:100A1000807CDB0130E020E0FC01E20FF31F459118
:100A200054914D935D932E5F3F4F20343105A1F7D4
:100A30000895FC01E07C83E080935700E89507B6B9
:100A400000FCFDCF08959C01DB01CB01805C9F4F32
:100A5000F9016D917D9141E00B0140935700E895BC
:100A600011243296A817B907A1F785E0F901809300
:100A70005700E89507B600FCFDCF0895CF93DF93AC
:100A8000CDB7DEB7C054D1090FB6F894DEBF0FBEA4
:100A9000CDBFBE016F5F7F4F90E080E0B9DF8FEF89
:100AA0009FEF9A83898390E080E0C3DFBE016F5F90
:100AB0007F4F90E080E0C7DFC05CDF4F0FB6F89457
:100AC000DEBF0FBECDBFDF91CF910895EF92FF92B1
:100AD0000F931F93CF93DF93CDB7DEB7C054D109E7
:100AE0000FB6F894DEBF0FBECDBF8EE9E82E80E0D2
:100AF000F82E10E000E0003469E0160771F4C05CE5
:100B0000DF4F0FB6F894DEBF0FBECDBFDF91CF91A0
:100B10001F910F91FF90EF900895A70130E020E022
:100B2000C9018E7F69E0463B560748F1E1E0F0E0FD
:100B3000EC0FFD1F8E0F9F1F6FEF7FEFFC01718386
:100B400060832E5F3F4F4E5F5F4F2034310541F78A
:100B50008091600090916100800F911F6ADF809109
:100B6000600090916100BE016F5F7F4F800F911F09
:100B70006ADF005C1F4FF0E4EF0EF11CBCCFFA01FE
:100B800065917491E1E0F0E0EC0FFD1F8E0F9F1F67
:100B9000D5CF0F931F93CF93DF93CDB7DEB7C0545C
:100BA000D1090FB6F894DEBF0FBECDBF80916000B3
:100BB000909161009695879581509044FE01319601
:100BC0009E012F5B3F4F8F0181939193E217F307B3
:100BD000D9F790E080E02DDFB80190E080E033DFCE
:100BE000C05CDF4F0FB6F894DEBF0FBECDBFDF9104
:100BF000CF911F910F910895CF9387B3836087BBE7
:100C0000C198CAEF81E090E0FADEC19A81E090E0FD
:100C1000F6DEC198C150B1F7CF910895F0E0E0E061
:100C2000099488B318BA87B38FEF87BB8AEF90E037
:100C3000E6DE87B317BA8AEF90E0E1DEF8941EDFB4
:100C400045DFA7DFD9DFEADF90E080E00895F89480
:020C5000FFCFD4
:020C5200800020
:040000030000008079
:00000001FF
